:020000040800F2
:1000000000000220511C0008710900087309000853
:100010007509000877090008790900080000000048
:100020000000000000000000000000007B09000844
:100030007D090008000000007F0900088109000810
:10004000A11C0008A11C0008A11C0008A11C00089C
:10005000A11C0008A11C0008A11C0008A11C00088C
:10006000A11C0008A11C0008A11C0008A11C00087C
:10007000A11C0008A11C0008A11C0008A11C00086C
:10008000A11C0008A11C0008A11C0008A11C00085C
:10009000A11C0008A11C0008A11C0008A11C00084C
:1000A000A11C0008A11C0008A11C0008A11C00083C
:1000B000A11C0008A11C0008A11C0008A11C00082C
:1000C000A11C0008A11C0008A11C0008A11C00081C
:1000D000A11C0008A11C0008A11C0008A11C00080C
:1000E000A11C0008A11C000800000000A11C0008C1
:1000F000A11C0008A11C0008A11C0008A11C0008EC
:10010000A11C0008A11C0008A11C0008A11C0008DB
:10011000A11C0008A11C0008A11C0008A11C0008CB
:10012000A11C0008A11C0008A11C0008A11C0008BB
:10013000A11C0008A11C0008A11C0008A11C0008AB
:1001400000000000000000000000000000000000AF
:10015000A11C0008A11C0008A11C0008A11C00088B
:10016000A11C0008A11C0008A11C0008A11C00087B
:10017000A11C0008A11C0008A11C0008A11C00086B
:10018000A11C0008A11C0008A11C0008A11C00085B
:10019000A11C0008A11C0008A11C0008A11C00084B
:1001A000A11C0008A11C0008A11C0008A11C00083B
:1001B000A11C0008A11C0008A11C0008A11C00082B
:1001C000A11C0008A11C0008A11C0008A11C00081B
:1001D000A11C0008A11C0008A11C0008A11C00080B
:1001E000A11C0008A11C0008A11C0008A11C0008FB
:1001F000A11C0008A11C0008A11C0008A11C0008EB
:10020000A11C0008A11C0008A11C0008A11C0008DA
:10021000A11C0008A11C0008A11C0008A11C0008CA
:10022000A11C0008A11C0008A11C0008000000007F
:10023000A11C0008A11C000800000000A11C00086F
:10024000A11C0008A11C0008A11C0008A11C00089A
:10025000A11C0008A11C0008A11C0008A11C00088A
:10026000A11C0008A11C0008A11C0008A11C00087A
:10027000A11C0008A11C0008A11C0008000000002F
:10028000A11C0008A11C0008A11C0008000000001F
:1002900000000000A11C000810B5054C237833B9FC
:1002A000044B13B10448AFF300800123237010BD49
:1002B0003C04002000000000081E000808B5034BA5
:1002C0001BB103490348AFF3008008BD00000000E4
:1002D00040040020081E000880B59CB0BFF34F8F7B
:1002E000BFF36F8F684B0021C3F85012BFF34F8FDD
:1002F000BFF36F8F5A6942F400325A61BFF34F8FD8
:10030000BFF36F8FC3F88410BFF34F8FD3F88020F3
:1003100043F6E076C2F3C904C2F34E32A507520198
:1003200002EA060C284621464CEA0007013900F192
:100330004040C3F860724F1CF6D1203A12F1200FF2
:10034000EED1BFF34F8F5A6942F480325A61BFF346
:100350004F8FBFF36F8F00F079FB022000F016FD86
:1003600000230093494BDA6A22F00102DA62DB6A69
:1003700003F001030093464B9A6942F440429A61AC
:100380009A6902F440420092009A9A699404FCD55A
:100390004FF480334FF0010E0520A02102220424E7
:1003A00008251692189217941995CDE909E30023B0
:1003B000CDE9140109A80C9310931B931A93CDE96E
:1003C000122201F005F800B1FEE703234FF03F0CC5
:1003D0004FF480622146CDE901C34023CDE90305F6
:1003E00001A8CDE90533CDE9072301F00DFB00B1EC
:1003F000FEE700F0BBF900B1FEE7BFF34F8FBFF39C
:100400006F8F214B5A6922F400325A61C3F85002AF
:10041000BFF34F8FBFF36F8FC3F88400BFF34F8FCD
:100420005A6922F480325A61BFF34F8FD3F880208B
:1004300043F6E076C2F3C904C2F34E32A507520177
:1004400002EA060C284621464CEA0007013900F171
:100450004040C3F874724F1CF6D1203A12F1200FBD
:10046000EED1BFF34F8FBFF36F8F0A4B00221A609C
:10047000094B0A4A1B6813604FF01042126882F35E
:1004800008889847FEE700BF00ED00E00004005830
:100490000048025810E000E00400009058040020DA
:1004A0007B4B2DE9F04FD3F8D42091B0794D09243E
:1004B00042F480420026784F0BA9C3F8D420284686
:1004C000D3F8D4204FF040084FF00A0BDFF8D0A14A
:1004D00002F480424FF400790092009ADA6F42F4FD
:1004E0008042DA67DA6F22F48042DA67D3F8E020DC
:1004F00042F02002C3F8E020D3F8E02002F020020E
:100500000192019AD3F8E02042F00802C3F8E020FB
:10051000D3F8E02002F008020292029AD3F8E02019
:1005200042F02002C3F8E020D3F8E02002F02002DD
:100530000392039AD3F8E02042F02002C3F8E020AF
:10054000D3F8E02002F020020492049AD3F8E020CD
:1005500042F02002C3F8E020D3F8E02002F02002AD
:100560000592059AD3F8E02042F04002C3F8E0205B
:10057000D3F8E02002F040020692069AD3F8E02079
:1005800042F08002C3F8E020D3F8E02002F08002BD
:100590000792079AD3F8E02042F08002C3F8E020E7
:1005A000D3F8E02002F080020892089AD3F8E02005
:1005B00042F04002C3F8E020D3F8E02002F040020D
:1005C0000992099AD3F8E02042F04002C3F8E020F3
:1005D0004FF48062D3F8E03003F040030A930A9BA3
:1005E0000223CDE90B230323CDE90D630F9400F023
:1005F000DBFA01230BA93846CDF82C800D93CDF8FA
:100600003CB000F0D1FA4FF400630BA923480B93E0
:100610000D960F9400F0C8FA04230BA950460F94CE
:100620000B9300F0C1FA0BA92846CDF82C90CDF819
:100630003CB000F0B9FA08230BA950460F940B9375
:1006400000F0B2FA80230BA928460F940B9300F018
:10065000ABFA0BA93846CDF82C9000F0A5FA0BA9FF
:100660002846CDF82C8000F09FFA4FF480430BA968
:1006700038460B9300F098FA32460F215C2000F0C8
:100680003DFA5C2000F06CFA11B0BDE8F08F00BFBD
:10069000004402580014025800180258000C025876
:1006A000001C025800B54FF4407395B04FF04072F3
:1006B00011480C9305230F920222069300230B92FC
:1006C00006A913930093049303926A46CDE90D3370
:1006D000CDE91133102302934FF48003059340F2C8
:1006E0000113019341F2883300F0D9FD003018BFA7
:1006F000012015B05DF804FB5C04002000B54FF448
:10070000407395B041F2883217480C93062306A92E
:1007100006930023CDE90D330F930B931393CDE98B
:10072000113300F0BCFCE8B940F2022302224FF47E
:10073000800104900C48CDE900331023CDE902324A
:1007400005236A46CDE905134FF0407306A90F93C0
:1007500041F2883300F0A3FD003018BF012015B02E
:100760005DF804FB0120FAE75C0400202DE9F0436A
:100770007D4C9DB07D4B2046236000F074FC074605
:1007800008B10124ECE0FFF78BFE01250323C4E947
:1007900001351023E3604FF0006393FAA3F3B3FA3B
:1007A00083F34FF440762046E761013B2361402309
:1007B000C4E90567236200F0F7FB0028E1D14FF49C
:1007C00080774FF06609099041F2883205906946BA
:1007D0000D900697CDF80090CDE90700CDE90B000C
:1007E000204600F05CFC0028CBD14FF0990841F284
:1007F000883269462046CDF8008000F050FC002881
:10080000BFD141F28832694620460696CDF8009065
:1008100000F045FC0028B4D141F2883269462046F8
:10082000CDF8008000F03BFC0028AAD135231790BA
:10083000139041F288321B900EA914970E93CDE9C4
:100840001500CDE91900204600F029FC002898D1B8
:10085000FFF728FF002894D1B723149617900E9322
:1008600013901B90CDE91500CDE91900FFF746FF65
:10087000002886D141F288320EA9204600F00FFCF4
:1008800000287FF47EAFFFF70DFF00287FF479AFDB
:1008900085234FF440764FF04075ADF800000E937D
:1008A0000223139041F288320EA914961795CDE9D0
:1008B0001500CDE91830CDE91A002B4800F0EFFB08
:1008C00000287FF45EAF41F288326946264800F086
:1008D00085FC00287FF455AFFFF710FF0446002881
:1008E0007FF44FAF812341F288320EA91E480E9348
:1008F000BDF8003023F0F0031B051B0D43F400434B
:1009000043F08003ADF8003000F0C9FB00287FF40D
:1009100038AF41F288326946134800F003FC0028E2
:100920007FF42FAFED236A460EA90F480E934FF4C4
:1009300040631B9415934FF4405314961193052371
:10094000CDE9164513934FF000454FF08043CDE9B4
:100950000044CDE9195300F0F7FC002818BF01242A
:1009600020461DB0BDE8F0835C040020005000521A
:100970007047FEE7FEE7FEE7FEE770477047704707
:1009800000F092B81849194810B5D1F8883043F4EE
:100990007003C1F88830164B1A6842F001021A60E1
:1009A00000221A611C68204018609A61DA611A629C
:1009B0009A62DA621A635A639A63DA631A645A644F
:1009C000186820F4802018601A660A4B1B681B0CFC
:1009D0001B04B3F1005F02D2074B01221A604FF0F3
:1009E00000638B6010BD00BF00ED00E07FEDF6EA14
:1009F000004402580010005C08810051704700005C
:100A000038B50F4B0546187808B9012038BD4FF4AA
:100A10007A730C4AB3FBF0F31068B0FBF3F000F00C
:100A2000ADF804460028F0D10F2DEED80246294635
:100A30004FF0FF3000F062F8034B20461D60E5E701
:100A400008000020000000200C00002010B503204A
:100A500000F042F800F03CFF0F49104A8B69C3F3E5
:100A60000323D35C03F01F03D8400D4B18608B6940
:100A700003F00F03D35C03F01F03D840094B186049
:100A80000F20FFF7BDFF044618B9FFF7B7FF204658
:100A900010BD0124FBE700BF00440258201E0008DF
:100AA0000000002004000020034A044B11681B785A
:100AB0000B441360704700BFA8040020080000200A
:100AC000014B1868704700BFA8040020014B18684C
:100AD000000C70470010005C074A0002D36800F465
:100AE000E06023F4E0631B041B0C43F0BF6343F49A
:100AF00000330343D360704700ED00E0164B70B540
:100B0000DC684FF0FF36C4F30224C4F10705231D4F
:100B1000042D28BF0425062B06FA05F38CBF033CE1
:100B20000024002821EA030303FA04F306FA04F47C
:100B300022EA040443EA04034FEA0313DBB206DBB0
:100B400000F1604000F5614080F8003370BD00F0B6
:100B50000F00024A1354F9E700ED00E014ED00E045
:100B6000002808DB4209012300F01F0003FA00F00F
:100B7000014B43F82200704700E100E00138B0F17A
:100B8000807F0AD2064BF021064A5860002082F886
:100B90002310072298601A6070470120704700BF39
:100BA00010E000E000ED00E04FF0B04C00232DE934
:100BB000F74F724EE246DFF8D0B10A6832FA03F41A
:100BC00002D103B0BDE8F08F4FF0010E0EFA03FE24
:100BD0001EEA020200F0BD804C6824F01004022CD2
:100BE00014D14FEAD30803F007090F2500EB88085A
:100BF0004FEA8909D8F8204005FA09F524EA0505E5
:100C00000C6904FA09F42C43C8F820404FEA430861
:100C10004FF003094C6809FA08F9056804F0030469
:100C20006FEA090904FA08F409EA05052C4304608F
:100C30004D6825F01005013D012D11D88468CD685F
:100C400009EA040405FA08F525438560446824EAA6
:100C50000E0E4C68C4F300149C4044EA0E04446039
:100C6000C46809EA04098C6804FA08F444EA09042F
:100C7000C4604C68E4006CD5414D03F0030E4FF0A6
:100C80000F08D5F8F4404FEA8E0E44F00204C5F880
:100C9000F440D5F8F44023F0030505F1B04504F025
:100CA000020405F580650194019C08FA0EF4D5F85C
:100CB000089029EA0408334CA0424CD004F5806423
:100CC000A0424AD004F58064A04248D0584548D09C
:100CD00004F50064A04246D004F58064A04244D0EC
:100CE00004F58064A04242D004F58064A04240D064
:100CF00004F58064A0423ED004F58064A0420CBF9D
:100D000009240A2404FA0EF444EA0804AC60D5432A
:100D10004F683468FF034CBF14432C4034604F6865
:100D20007468BF034CBF14432C4074604F68DCF8F8
:100D30000040FF024CBF14432C40CAF800404F68EB
:100D4000DAF80440BF0254BF05EA04022243CCF89B
:100D50000420013331E70024D4E70124D2E7022440
:100D6000D0E70324CEE70424CCE70524CAE7062411
:100D7000C8E70724C6E70824C4E700BF800000587E
:100D80000044025800000258000C025838B5104CBC
:100D9000E36813F0040FE36805D103F00703181AA2
:100DA00018BF012038BD23F007031843E060FFF7A8
:100DB00087FE054663689B0401D50020F2E7FFF734
:100DC0007FFE401BB0F57A7FF4D90120EAE700BF2F
:100DD000004802584B6A2DE9F04733B1B2F1406F39
:100DE00003D08B6A0468013B23618B690C6A002B7A
:100DF00067D00568002C35D08B68EB61CC694B6AF5
:100E000005688F69D1F820C0D1F83480D1F810E09E
:100E10000E68D1E90BA9A4B144EA0A04144344EAD8
:100E2000090444EA08042343CC6843EA0E0343EA76
:100E30000C0323433B434C69334343EA84436B61D4
:100E40002AE04AEA0904144344EA0804234343EA33
:100E50000E0343EA0C033B4333434E6943EA8646A1
:100E60006E612CE04E69CC69D1F80090B604D1F8DF
:100E700024804F6BD1E90BECACB11C43CB6814431D
:100E800044EA090444EA080444EA0E0444EA0C046F
:100E90003C431C4334436C61B2F1406F0FD0036894
:100EA0004A689A610BE043EA0903134343EA0803E3
:100EB00043EA0E0343EA0C033B4333436B61BDE853
:100EC000F08744B303688C68DC61CC69D1F8248076
:100ED00005688E69D1F820C04B6BD1F810E0D1E9DC
:100EE0000B796CB13C43144344EA09042343CC68B6
:100EF00043EA080343EA0E0343EA0C0323439AE759
:100F000047EA09042243134343EA080343EA0E0372
:100F100043EA0C03A0E7CD694B6A7DB12B43CD6A50
:100F2000046813432B430D6B2B434D6B2B43CD6850
:100F30002B434D6943EA85436361ADE7002BBED087
:100F4000CC6A0068234313430A6B13434A6B134371
:100F50004A6943EA82434361B1E72DE9F041069DC6
:100F600004460F461646984621688A683A4214BFDE
:100F700001220022B24201D1002011E06B1CF4D00A
:100F8000FFF79EFDA0EB0800A84201D8002DEBD191
:100F90000423012084F84130636C43F0010363644F
:100FA000BDE8F0817047000037B50446FFF788FDC3
:100FB0000546002C4FD094F84030012B4DD0012332
:100FC00084F8403094F8412002F0FF033AB984F8E5
:100FD00040302046FFF7E6FF41F28833A3642068E3
:100FE000A1680268013922F4706242EA01222021DC
:100FF00002600022A36C204600932B46FFF7ADFF52
:1010000020BB2168E569E3680A682B43256A22F062
:101010007F422B43656822F0D00243EA0563134305
:101020000B602168D4E905324D681343226943EA15
:1010300002430B4A2A4013434B602268136843F073
:10104000010313600123606484F84130002384F8B5
:10105000403003B030BD0120FBE70220F9E700BFBC
:10106000FEF8E0FF704710B50446A0B190F840309C
:10107000012B12D00268012380F84030136823F05E
:1010800001031360FFF7EEFF0020606484F8410065
:1010900084F8400010BD0120FCE70220FAE72DE9AA
:1010A000F34704468A469146FFF70AFD94F840301C
:1010B0008046012B34D00123022784F8403094F875
:1010C0004160F6B29E4229D100220346CDF800903D
:1010D00020216264204684F84170FFF73EFF0546F8
:1010E000A8B9024651462046FFF774FEDAF82430CC
:1010F0005BB9CDF800904346324639462046FFF7AB
:101100002CFF054618B92368DF6084F8416000238E
:1011100084F84030284602B0BDE8F0873D46F6E747
:101120000225F7E72DE9F341044688461746FFF705
:10113000C7FC94F840300646012B4DD001232568AA
:1011400084F8403094F84100C0B2984242D1002364
:101150006364B8F1000F38D0122384F841302B6952
:101160000133E3622B69C4F824800133A3626B6905
:1011700023F040636B61E36A9BB900973346012219
:1011800002212046FFF7E9FE10B923680222DA6047
:10119000012384F84130002384F8403002B0BDE8D8
:1011A000F08100973346012204212046FFF7D5FE47
:1011B0000028EDD1636A1B7885F82030636A01331B
:1011C0006362E36A013BE362D5E7636C43F00803C3
:1011D0006364E0E70220DEE70220DFE72DE9F34168
:1011E000044617468846FFF76BFC25680646AA6941
:1011F00094F84030012B50D0012384F8403094F80B
:101200004100C0B2984246D100236364B8F1000F98
:101210003CD0222384F841302B690133A3632B692E
:10122000C4F83080013363636B6923F0406343F09B
:1012300080636B6123689A61A36B9BB90097334607
:10124000012202212046FFF788FE10B923680222FE
:10125000DA60012384F84130002384F8403002B082
:10126000BDE8F08100973346012206212046FFF7B2
:1012700074FE0028EDD195F82020236B1A70236BA3
:1012800001332363A36B013BA363D5E7636C43F096
:1012900008036364E0E70220DEE70220DFE72DE9D0
:1012A000F7430446984689461646FFF709FC94F82A
:1012B00040300746012B45D0012384F8403094F894
:1012C0004150EDB29D423BD142230022CDF8008037
:1012D0002021626484F8413003462046FFF73DFE3A
:1012E00040BB2368204632689A62236872685A625B
:1012F0002368B268DA62216833690A6843F48003BC
:1013000022F4400213434FF000620B604946F36839
:10131000C9F82830FFF75EFDCDF800803B462A462D
:1013200008212046FFF719FE20B923680822DA6059
:1013300084F84150002384F8403003B0BDE8F083C6
:101340000220F7E70220F8E7F7B5044617460E46F5
:10135000FFF7B6FB94F840200346012A36D001225D
:1013600084F8402094F84120012A2DD100228221C6
:101370002046626484F84110A16C00912021FFF79F
:10138000ECFD0546D0B922687968136823F008039C
:101390000B4313607B68082B0AD123683A681A63F1
:1013A00010222368DA602268136843F48013136004
:1013B0004FF0406231462046FFF70CFD002384F8D1
:1013C0004030284603B0F0BD0225F7E70225F8E7D4
:1013D000F8B5044608B9012090E00368DD075ED443
:1013E0002368980700F1AC802368DA0623D5AB4B5D
:1013F0001A69996A02F03802082A07D0182A40F0C0
:10140000008101F00302012A40F0FB801B68DB052C
:1014100002D5E369802BDED1FFF758FB41F20303CD
:101420009E4A9842216A00F2E580536823F0F8430F
:1014300043EA816353602368190700F11B81236825
:101440009A0600F1408123685D0722D5944D2B68F0
:1014500043F480732B60FFF733FB06462B68DA05F5
:1014600040F15681A2688D4B012A40F058811A6FD5
:1014700042F001021A67A368002B00F06781FFF7B2
:101480001FFB864D064641F288372B6F9B0740F1C4
:101490005681606A002840F0698100202EE07F4B71
:1014A0001A69996A02F03802102A05D0182A0AD15E
:1014B00001F00302022A06D11B68990390D56368E4
:1014C000002B8DD187E76268744BB2F5803F16D14F
:1014D0001A6842F480321A6063680BB3FFF7F0FABF
:1014E0006E4D064641F288372B689A033FF578AF78
:1014F000FFF7E6FA801BB842F6D90320F8BD3AB9E7
:101500001A6822F480321A601A6822F48022E2E714
:10151000B2F5A02F1A68F4D142F480221A60D7E7FE
:10152000FFF7CEFA5D4D064641F288372B689B03E4
:101530007FF556AFFFF7C4FA801BB842F6D9DCE757
:10154000564B1A69996A12F0380203D0182A1BD137
:101550008E0719D11B685D0703D5E368002B3FF4A4
:101560003AAFFFF7B3FA41F203034C4A98422169BC
:10157000536895BF23F47C3323F0FE4343EA0133E1
:1015800043EA016353602FE7444DE2682B680AB3D6
:1015900023F0190313432B60FFF792FA06462B68DA
:1015A000580711D5FFF792FA41F2030322699842D6
:1015B0006B6895BF23F47C3323F0FE4343EA023388
:1015C00043EA02636B600FE7FFF77AFA801B022899
:1015D000E5D992E723F001032B60FFF771FA064685
:1015E0002B6859077FF500AFFFF76AFA801B0228C6
:1015F000F6D982E7D36823F07C5343EA0163D360D2
:1016000019E7E369254D23B32B6843F080032B6072
:10161000FFF756FA06462B68DF050DD5FFF756FA99
:1016200041F20303226A98420CD86B6823F0F84316
:1016300043EA82636B60FEE6FFF742FA801B0228F2
:10164000E9D95AE7EB6823F07C5343EA0263EB6085
:10165000F1E62B6823F080032B60FFF731FA064692
:101660002B68D8057FF5E7AEFFF72AFA801B022822
:10167000F6D942E76369094DA3B16B6F43F00103EB
:101680006B67FFF71DFA06466B6F9B073FF5D7AEFA
:10169000FFF716FA801B0228F6D92EE700440258FD
:1016A000004802586B6F23F001036B67FFF708FADD
:1016B00006466B6F9F077FF5C2AEFFF701FA801BEE
:1016C0000228F6D919E7A369804D83B12B6843F44A
:1016D00080532B60FFF7F4F906462B6898043FF51A
:1016E000B2AEFFF7EDF9801B0228F6D905E72B68AB
:1016F00023F480532B60FFF7E3F906462B68990427
:101700007FF5A1AEFFF7DCF9801B0228F6D9F4E6DD
:10171000FFF7D6F9801B64287FF6A0AEEDE63AB954
:101720001A6F22F001021A671A6F22F00402A1E672
:10173000052A1A6FF5D142F004021A6797E6FFF7FF
:10174000BFF9801BB8427FF6A0AED6E6FFF7B8F926
:101750005E4D064641F288372B6F98077FF599AEAC
:10176000FFF7AEF9801BB842F6D9C6E6574D2B6994
:1017700003F03803182B7AD02B68022823F08073EB
:101780002B6067D1FFF79CF906462B6899015BD463
:10179000AB6AA26A23F47C7323F003031343E26A67
:1017A00043EA0213AB62636BA26B013B013A5B023B
:1017B00012049BB202F4FE021343226B013AC2F3FD
:1017C00008021343E26B013A120602F0FE42134391
:1017D0002B63EB6A23F00103EB626B6BA26C23F4C7
:1017E0007F4323F0F80343EAC2036B63EB6A226C86
:1017F00023F00C031343EB62EB6A626C23F00203E9
:10180000324C1343EB62EB6A43F48033EB62EB6AD6
:1018100043F40033EB62EB6A43F48023EB62EB6A40
:1018200043F00103EB622B6843F080732B60FFF7FA
:1018300047F9054623689A013FF52FAEFFF740F9B7
:10184000401B0228F6D958E6FFF73AF9801B022818
:101850009BD952E6FFF734F904462B689B017FF5CC
:101860001CAEFFF72DF9001B0228F6D945E601282A
:10187000AA6A2B6B3FF442AE02F00301A06A8142D8
:101880007FF4A9ADC2F30512E16A8A427FF4A3ADE9
:10189000226BC3F30801013A91427FF49CAD626B65
:1018A000C3F34621013A91427FF495ADA26BC3F395
:1018B0000641013A91427FF48EADE06BC3F30663BB
:1018C0000138181A18BF012018E600BF004402585A
:1018D000464B10B51A6902F03802102A00F08480D5
:1018E000182A0CD00AB1424810BD1A68414812F0BB
:1018F000200FF9D01B68C3F3C103D840F4E7996AFD
:10190000986ADA6AC0F305105C6B0028ECD007EE29
:10191000900A02F00102C4F3CC00B7EE006AF8EEC0
:10192000E76A424307EE902A01F00302012AFAEE29
:10193000E97A02D00FD3022A48D01B6BC3F3080305
:1019400007EE103AB8EEC77A77EE277A77EE867A06
:101950009FED296A37E01A68920627D51968254A4B
:10196000C1F3C1011B6BCA40C3F3080307EE102A81
:10197000F8EEC75A85EEA67A06EE903AF8EEE66AD9
:1019800076EEA77A77EE867A184B67EE877A1B6B2E
:10199000C3F34623013307EE103AF8EEC76A87EE29
:1019A000A67AFCEEC77A17EE900A9DE71B6BC3F38D
:1019B000080307EE103AB8EEC77A77EE277A77EE8B
:1019C000867A9FED0E6A86EE267ADDE71B6BC3F3FF
:1019D000080307EE103AB8EEC77A77EE277A77EE6B
:1019E000867A9FED076AEEE706487DE700440258D5
:1019F00000093D000090D0030024744A0024744C78
:101A000020BCBE4B40787D012DE9F0410D460446D7
:101A100010B90120BDE8F081884A136803F00F0374
:101A20008B42C0F0928023685E0700F19A802368A1
:101A300018070BD5824A6069D16901F070018842AC
:101A400004D9D36923F070030343D3612368D90613
:101A50000BD57B4AA069D16901F4E061884204D9C1
:101A6000D36923F4E0630343D36123689A060BD55B
:101A7000734AE069116A01F07001884204D9136A5F
:101A800023F070030343136223689B070BD56C4A52
:101A9000E068916901F00F01884204D9936923F04D
:101AA0000F03034393612368DF0768D423689E070D
:101AB00000F19B80614A136803F00F03AB4200F210
:101AC000A2802368580700F1AA80236819070BD564
:101AD0005B4A6069D16901F07001884204D2D36920
:101AE00023F070030343D3612368DA060BD5544A0D
:101AF000A069D16901F4E061884204D2D36923F47A
:101B0000E0630343D36123689B060BD54C4AE0692D
:101B1000116A01F07001884204D2136A23F0700345
:101B200003431362FFF7D4FE454B464A9B69C3F358
:101B30000323D35C03F01F03D840434B1860434B8F
:101B4000BDE8F0411868FEF75BBF136823F00F0390
:101B50000B431360136803F00F038B427FF459AFFC
:101B600061E7374A2069916901F0700188427FF688
:101B70005EAF936923F070030343936157E7304BE3
:101B8000A1689A6922F470620A439A6161681A68CE
:101B900002291DD112F4003F3FF43BAF1A6941F214
:101BA0008838274E22F007020A431A61FEF788FFA1
:101BB00007463369626803F03803B3EBC20F3FF4A2
:101BC00075AFFEF77DFFC01B4045F2D9032021E72A
:101BD000032902D112F0007FDEE7012902D112F4BD
:101BE000807FD9E712F0040FD6E7154AE0689169C3
:101BF00001F00F018842BFF45DAF936923F00F033A
:101C00000343936156E7136823F00F032B431360DC
:101C1000136803F00F03AB427FF4FBAE51E7084AB1
:101C20002069916901F070018842BFF44EAF936959
:101C300023F070030343936147E700BF0020005285
:101C400000440258201E0008000000200C00002064
:101C5000DFF834D0002103E00C4B5B5843500431D3
:101C60000B480C4B42189A42F6D30B4A02E0002371
:101C700042F8043B094B9A42F9D3FEF783FE00F089
:101C800011F8FEF729FB704700000220401E0008F3
:101C9000000000203C0400203C040020D004002070
:101CA000FEE7000070B50D4E0D4D761BB61006D048
:101CB0000024013455F8043B9847A642F9D1094E57
:101CC000094D761B00F0A0F8B61006D000240134B0
:101CD00055F8043B9847A642F9D170BD341E000860
:101CE000341E00083C1E0008341E0008024B13B1CD
:101CF000024800F005B87047000000000D1D000804
:101D0000002301461A46184600F01EB838B50A4CA2
:101D10000A4D641BA4100AD004F18043013B05EB7B
:101D20008305013C55F804399847002CF9D1BDE8EA
:101D3000384000F06FB800BF401E00083C1E00088D
:101D4000704700BF704700BF2DE9F8432B4D064692
:101D5000286898460F469146FFF7F2FF284B1C680B
:101D6000D4F84831002B3DD05A681F2A0DDC02F10F
:101D7000010C16BB0232C3F804C0286843F8227075
:101D8000FFF7E0FF0020BDE8F8831E4B7BB34FF464
:101D9000C870AFF30080034648B3D4F8482100214F
:101DA000C0E900214FF0010CC4F848010A46C0F810
:101DB0008811C0F88C11002EDCD003EB82010124C5
:101DC000C1F88890D3F8880194402043022EC3F8CC
:101DD0008801C1F80881CDD1D3F88C110C43C3F828
:101DE0008C41C7E704F5A673C4F84831BCE72868FE
:101DF000FFF7A8FF4FF0FF30C5E700BF3804002011
:101E0000301E000800000000F8B500BFF8BC08BC98
:101E10009E467047F8B500BFF8BC08BC9E467047A8
:101E20000000000001020304010203040607080980
:101E300010000020ED1C0008BD02000899020008F7
:101E40000090D0030090D0030100000010000000BB
:101E500000000000FC02002064030020CC030020EE
:101E60000000000000000000000000000000000072
:101E70000000000000000000000000000000000062
:101E80000000000000000000000000000000000052
:101E90000000000000000000000000000000000042
:101EA0000000000000000000000000000000000032
:101EB0000000000000000000000000000000000022
:101EC0000000000000000000000000000000000012
:101ED0000000000000000000000000000000000002
:101EE00000000000000000000000000000000000F2
:101EF00000000000000000000100000000000000E1
:101F00000E33CDAB34126DE6ECDE05000B000000A5
:101F100000000000000000000000000000000000C1
:101F200000000000000000000000000000000000B1
:101F300000000000000000000000000000000000A1
:101F40000000000000000000000000000000000091
:0C2270000000000000000000AC04002092
:0200000490006A
:1000000000000824A5D50090F7550090F955009000
:10001000FB550090FD550090FF550090000000003A
:1000200000000000000000000000000011C7009068
:100030000156009000000000A1C70090FDC0009094
:10004000F5D50090F5D50090F5D50090F5D5009048
:10005000F5D50090F5D50090F5D50090F5D5009038
:10006000F5D50090F5D50090F5D50090F5D5009028
:10007000F5D50090F5D50090F5D50090F5D5009018
:10008000F5D50090F5D50090F5D50090F5D5009008
:10009000F5D50090F5D50090F5D50090F5D50090F8
:1000A000F5D50090F5D50090F5D50090F5D50090E8
:1000B000F5D50090F5D50090F5D50090F5D50090D8
:1000C000F5D50090F5D50090F5D50090F5D50090C8
:1000D000F5D50090F5D50090F5D50090F5D50090B8
:1000E000F5D50090F5D5009000000000F5D5009002
:1000F000F5D50090F5D50090F5D50090F5D5009098
:10010000F5D50090F5D50090F5D50090F5D5009087
:10011000F5D50090F5D5009005560090F5D50090E6
:10012000F5D50090F5D50090F5D50090F5D5009067
:10013000F5D50090F5D50090F5D50090F5D5009057
:1001400000000000000000000000000000000000AF
:10015000F5D50090F5D50090F5D50090F5D5009037
:10016000F5D50090F5D50090F5D50090F5D5009027
:10017000F5D50090F5D50090F5D50090F5D5009017
:10018000F5D50090F5D50090F5D50090F5D5009007
:10019000F5D50090F5D50090F5D50090F5D50090F7
:1001A00011560090F5D500901D560090F5D50090A1
:1001B000F5D50090F5D50090F5D50090F5D50090D7
:1001C000F5D50090F5D50090F5D50090F5D50090C7
:1001D000F5D50090F5D50090F5D50090F5D50090B7
:1001E000F5D50090F5D50090F5D50090F5D50090A7
:1001F000F5D50090F5D50090F5D50090F5D5009097
:10020000F5D50090F5D50090F5D50090F5D5009086
:10021000F5D50090F5D50090F5D50090F5D5009076
:10022000F5D500902956009035560090000000004A
:10023000F5D50090F5D5009000000000F5D50090B0
:10024000F5D50090F5D50090F5D50090F5D5009046
:10025000F5D50090F5D50090F5D50090F5D5009036
:10026000F5D50090F5D50090F5D50090F5D5009026
:10027000F5D50090F5D50090F5D500900000000070
:10028000F5D50090F5D50090F5D500900000000060
:0802900000000000F5D500900C
:1002A00010B5054C237833B9044B13B10448AFF3B0
:1002B00000800123237010BDE8030024000000002B
:1002C000748D029008B5034B1BB103490348AFF38B
:1002D000008008BD00000000EC030024748D029033
:1002E0007BB972B90029BEBF00204FF0004106E083
:1002F00008BF00281CBF6FF000414FF0FF3000F036
:10030000A5B9ADF1080C6DE904CE002909DB002B7D
:100310001ADB00F035F8DDF804E0DDE9022304B073
:100320007047404261EB4101002B1BDB00F028F8D5
:10033000DDF804E0DDE9022304B0404261EB410155
:10034000524263EB43037047524263EB430300F0B6
:1003500017F8DDF804E0DDE9022304B0404261EB68
:1003600041017047524263EB430300F009F8DDF8A6
:1003700004E0DDE9022304B0524263EB430370471B
:100380002DE9F047089E04468846002B4BD18A424F
:10039000154667D9B2FA82F24AB1C2F1200701FAD2
:1003A00002F320FA07F7954047EA030894404FEA22
:1003B000154E230CB8FBFEF71FFA85FC0EFB1788C1
:1003C00043EA084307FB0CF1994209D9EB1807F1FE
:1003D000FF3080F01B81994240F21881023F2B448C
:1003E0005B1AA4B2B3FBFEF00EFB103344EA0344E5
:1003F00000FB0CFCA44509D92C1900F1FF3380F057
:100400000781A44540F2048102382C4440EA0740A9
:10041000A4EB0C0400271EB1D4400023C6E900431E
:100420003946BDE8F0878B4209D9002E00F0EB80F9
:100430000027C6E9000138463946BDE8F087B3FA1F
:1004400083F7002F47D18B4202D3824200F2FA8019
:10045000841A61EB030301209846002EE0D0C6E920
:100460000048DDE702B9FFDEB2FA82F2002A40F06E
:100470008F80491B4FEA154E1FFA85F80127B1FB03
:10048000FEFC230C0EFB1C1143EA014308FB0CF19C
:10049000994207D9EB180CF1FF3002D2994200F2D1
:1004A000CD808446591AA3B2B1FBFEF00EFB1014A6
:1004B00043EA044408FB00F8A04507D92C1900F1D1
:1004C000FF3302D2A04500F2B6801846A4EB080420
:1004D00040EA0C409FE7C7F1200CBB4022FA0CFE1B
:1004E0004EEA030E01FA07F420FA0CF521FA0CF398
:1004F0004FEA1E482543B3FBF8F92C0C08FB1933CF
:100500001FFA8EFA44EA034309FB0AF49C4202FAFA
:1005100007F200FA07F10BD91EEB030309F1FF30D4
:1005200080F087809C4240F28480A9F102097344E4
:100530001B1BADB2B3FBF8F008FB103345EA0344D4
:1005400000FB0AFAA24508D91EEB040400F1FF33B0
:100550006BD2A24569D90238744440EA0940A0FB35
:100560000289A4EB0A044C45C2464B4654D351D0F1
:10057000002E69D0B1EB0A0564EB030404FA0CFC0D
:10058000FD40FC404CEA0505C6E90054002747E75A
:10059000C2F1200320FA03F7954001FA02F021FA94
:1005A00003F34FEA154E3843010CB3FBFEF71FFA75
:1005B00085F80EFB173341EA034107FB08F38B4232
:1005C00004FA02F407D9691807F1FF3C2FD28B42D5
:1005D0002DD9023F2944CB1A81B2B3FBFEF00EFBAA
:1005E000103341EA034100FB08F38B4207D9691835
:1005F00000F1FF3C17D28B4215D902382944C91AA1
:1006000040EA07473BE73746304609E70746E7E653
:100610001846FBE64145ABD2B8EB020A69EB0E0285
:1006200001381346A4E76046E9E7184695E76746B0
:10063000D1E781467CE702382C4447E7ACF1020C55
:100640002B442FE7384608E73746E9E6704700BFF6
:1006500001F0FF01102A2BDB10F0070F08D010F873
:10066000013B013A8B422DD010F0070F42B3F6D177
:10067000F0B441EA012141EA014122F007047FF090
:1006800000070023F0E80256083C85EA010586EAE7
:10069000010685FA47F5A3FA87F586FA47F6A5FA23
:1006A00087F68EB9EED1F0BC01F0FF0102F007022F
:1006B00032B110F8013B013A83EA010313B1F8D1DA
:1006C0000020704701387047002D06BF35460338BB
:1006D000073815F0010F07D1013015F4807F02BFF4
:1006E000013015F4C03F0130F0BC0138704700BF45
:1006F00090F8252012B103685B6918477047818024
:100700007047C180704701817047418170477047D1
:100710007047704770477047C388D21A8388C91AD8
:10072000036812B209B210B45DF8044B5B6D184750
:10073000806A7047034B10B50446036000F05BFD10
:10074000204610BDD48D029010B50446FFF7F2FF8D
:100750004FF48271204626F08DFA204610BD00002D
:1007600010B5044600F0DEFD014B2046236010BDAD
:10077000D48D029000F040BD704704387047704738
:1007800010B50446102126F075FA204610BDA0F1E0
:100790000400F5E70022C1608260044A10B502F14E
:1007A000080420320460426010BD00BF608E0290D9
:1007B00070477047704700F16C038B4204BF002301
:1007C000A0F8E8377047704770B4C66803464568BC
:1007D0007410F6079B6805EB040044BF2C59E358DE
:1007E00070BC184743682BB183682BB9C06800F010
:1007F00001007047184670470120704710B5044645
:10080000102126F037FA204610BD0000034B10B52A
:100810000446036000F08CFE204610BD308F02902D
:1008200010B50446FFF7F2FF40F2FC71204626F0B7
:1008300021FA204610BDB0F9E837B3F5617F10B555
:10084000044606D103685B6B98470023A4F8E83799
:1008500010BD0133FAE710B504469C300DF010FDD1
:100860003422E36B00B29B6802FB003090F8373013
:100870002BB1236820461B6BBDE81040184710BD04
:1008800010B5044601F00EF8084BC4F8F0472046B6
:100890002360074BC4F8EC37064BC4F8F437002349
:1008A000C4F8F837A4F8E83710BD00BF308F0290C5
:1008B000908E0290B707009010B5044600F01AFF22
:1008C00004F2EC73C4F8983010BD00002DE9F34138
:1008D000044600F158068846174604F12C053046B8
:1008E00015F04FFB284615F04CFBB8F10B0F14D850
:1008F000DFE808F00628313A434C555E68717A8388
:1009000002A91E23284621F8043D11F0A6FD424A03
:10091000192104F1D00017F01FFF002F76D0FF231C
:1009200084F85430002384F8C93004F1A40015F091
:1009300028FB304615F025FB284615F022FB02B0B7
:10094000BDE8F08102A90E23284621F8043D11F0EC
:1009500084FD324ADCE702A91223284621F8043D2F
:1009600011F07BFD2E4AD3E702A90C23284621F87B
:10097000043D11F072FD2B4ACAE702A9082328465C
:1009800021F8043D11F069FD274AC1E702A91B23A4
:10099000284621F8043D11F060FD244AB8E702A979
:1009A0001823284621F8043D11F057FD204AAFE7EF
:1009B00002A94FF01908284621F8048D11F04DFDC9
:1009C0001C4AA5E702A91123284621F8043D11F08D
:1009D00044FD194A9CE702A90B23284621F8043D4F
:1009E00011F03BFD154A93E702A91F23284621F881
:1009F000043D11F032FD124A8AE702A9212328465C
:100A000021F8043D11F029FD0E4A81E78C2384F87A
:100A10005430012387E700BFA08E0290A98E029078
:100A2000B28E0290B88E0290C38E0290CD8E02904C
:100A3000D38E0290DE8E0290E88E0290F58E0290A8
:100A4000028F0290118F02902DE9F74F04464FF06C
:100A5000340808461146E36B04F5916B04F2D44761
:100A600004F5A4699B6804F26C56DFF8BCA008FB8F
:100A7000023393F83720FFF729FF04F19C000DF0B3
:100A8000FFFB0546584615F07CFA384615F079FA12
:100A900048462DB215F075FA304615F072FA15FB7E
:100AA00008F2E36B04F5F16002F11C0802F1300179
:100AB0009B6898445918134401910421DA6A9B6990
:100AC0000092524617F048FE584615F05AFA414631
:100AD000082204F5F26017F0E0FA384611F00EFB38
:100AE000384615F04EFA009B5246032104F5F46097
:100AF00017F032FE484615F044FA0722019904F235
:100B0000A67017F0CAFA304611F0F8FA304615F020
:100B100038FAE36B9B68A3F874520023A4F8E83713
:100B200003B0BDE8F08F00BF238F02907047000034
:100B3000034B10B50446036001F044FA204610BD93
:100B4000B88F029010B50446FFF7F2FF4FF42871FA
:100B5000204626F08FF8204610BD000010B5044650
:100B600001F042FA014B2046236010BDB88F02907D
:100B700010B5044601F027FA04F5277204F5267132
:100B800004F198000CF0D7FE0023A4F8963210BDB3
:100B900010B5B0F996220446D0F898329A4209D19D
:100BA0003B4A282100F5057017F0D6FD04F5BE700C
:100BB00015F0E7F9D4F89C320321B4F9962293FB9F
:100BC000F1F39A4209D1334A282104F5057017F050
:100BD000C3FD04F5BE7015F0D4F9D4F89C3203219E
:100BE000B4F996225B0093FBF1F39A4209D12A4AA9
:100BF000282104F5057017F0AFFD04F5BE7015F05F
:100C0000C0F9D4F89C32B4F996229A4201BFE36B42
:100C100001229B6883F87622D4F89C32B4F996229C
:100C200001339A421CD1E36B986800F0A7F8E36B9C
:100C300000221E219B6804F5197083F87622174A5A
:100C400017F08AFD04F5E47015F09BF9144A282189
:100C500004F5057017F080FD04F5BE7015F091F9EC
:100C6000D4F89C32B4F996127833994205DD2368A2
:100C70002046DB6ABDE810401847013104F19800B6
:100C800009B2A4F89612BDE810400CF01ABD00BFDE
:100C90006C8F0290728F0290788F02908C8F0290EE
:100CA0009F8F0290704704387047704710B5044614
:100CB000102125F0DFFF204610BDA0F10400F5E76C
:100CC0000022C1608260044A10B502F1080420329B
:100CD0000460426010BD00BFE88F029038B500226A
:100CE0000346044600F51D7543F8042B18463422CC
:100CF000002127F0C4F8034634339D42F6D1002585
:100D00004FF41C7101202A46A4F8745284F87652DC
:100D100009F00CFE054B2A4604211860012009F059
:100D200005FE034B1860204638BD00BF08040024B0
:100D3000040400240F4B00220F492DE9F0418046A6
:100D4000186809F0C1FF012811D100260A4F08EBED
:100D50000604BD1934360434B6F51C7F0FCD0FC41C
:100D60000FCD0FC40FCD0FC42B682360EFD1BDE8AA
:100D7000F08100BF080400240C040024002307B500
:100D8000B0F9742202A980F87632054841F8042DA2
:100D90001A46006809F030FE03B05DF804FB00BF9E
:100DA00004040024704700F598730868496803C379
:100DB0007047704701F0CABB10B504464FF4AE71DE
:100DC00025F058FF204610BD10B50446D0F8580154
:100DD000FFF7B0FF2046BDE8104014F0ABB810B5E7
:100DE0000446D0F8400158B10368DB68984738B131
:100DF000D4F8400103689B6898470023C4F8403149
:100E000010BD000010B5044601F068FB014B204600
:100E1000236010BD189002907047043870477047E7
:100E200010B50446102125F025FF204610BDA0F185
:100E30000400F5E70022C1608260044A10B502F1A7
:100E4000080420320460426010BD00BF649002902C
:100E5000704770477047704770B4C668034645686E
:100E60007410F6079B6805EB040044BF2C59E35847
:100E700070BC184743682BB183682BB9C06800F079
:100E800001007047184670470120704730B4C568AC
:100E9000034644686A10ED079B6804EB020048BFF4
:100EA000A25830BC48BFD358184743682BB1836859
:100EB0002BB9C06800F00100704718467047012048
:100EC000704710B50446102125F0D4FE204610BD11
:100ED00010B50446102125F0CDFE204610BD0000BF
:100EE000034B10B50446036001F098FE204610BD88
:100EF000C490029010B50446FFF7F2FF4FF4AA71B8
:100F0000204625F0B7FE204610BD00F16C028A4253
:100F100002D10368DB6A1847704790F828202AB18D
:100F200090F8252012B103685B69184770470000EC
:100F300010B5044601F03AFF0C4B0D4A20462360E1
:100F40000C4BC4F84421C4F834310B4B0B4AC4F8A1
:100F50003C310023C4F83841C4F84031C4F848415A
:100F6000C4F84C21C4F8503110BD00BFC4900290A9
:100F7000AC90029094900290691000900B0F00903A
:100F800070B5044601F04BFE94F8C53004F19C06A0
:100F90002BB913F033FF3146043013F0FDFF00236B
:100FA000304A94F8C450A4F8C630FF23C4F8D020C7
:100FB0000122A4F8CE307823A4F8CC50A4F8CA308B
:100FC000D4F8C81084F8C52000293BD1B4F8C80073
:100FD000A4F8C620904235D8ADB2101AC5F1FF0270
:100FE00080B216F082F8054494F8C420ADB22BB25A
:100FF0009A4206D0EDB273BB3046FFF78EFF84F8FD
:10100000C450B4F8C830B4F8CA10B4F8C6200B44C1
:101010009A4217D3002384F8C530A4F8CA3013F0DD
:10102000EDFE3146043013F00EFFD4F8D40048B181
:101030000368DB68984728B1D4F8D40031460368C8
:101040009B68984704F59A73C4F8D43004F5A273EA
:10105000C4F8983070BD84F8C4503046FFF75DFF87
:10106000CFE700BFEB70019000F19C038B4270B59D
:10107000044665D190F8203100F1D8062BB913F061
:10108000BDFE3146043013F087FF00232D4A94F84B
:101090000E51A4F82231FF23C4F82C210122A4F818
:1010A0002A317823A4F82851A4F82631D4F8241141
:1010B00084F82021002943D1B4F82401A4F8222186
:1010C00090423DD8ADB2101AC5F1FF0280B216F0C1
:1010D0000CF8054494F80E21ADB22BB29A4206D01A
:1010E000EDB23BBB304610F03DFF84F80E51B4F832
:1010F0002431B4F82611B4F822210B449A421FD3AC
:10110000002384F82031A4F8263113F077FE31460D
:10111000043013F098FED4F8300188B10368DB681E
:10112000984768B1D4F8300131460368BDE8704093
:101130009B68184784F80E51304610F013FFD6E72D
:1011400070BD00BFEB700190002070474FF6FF7339
:1011500083814FF0FF3303621368C36110607047EF
:1011600090F825201AB190F8242002B11860704739
:10117000704730B585B00368044601816D4601466D
:10118000D3F884303C342846984795E8070084E833
:10119000070005B030BD30B585B003680446418115
:1011A0006D460146D3F884303C342846984795E88C
:1011B000070084E8070005B030BD002202804280AD
:1011C0008280C280704780F83610704770B503681F
:1011D000044615461B6B98472368294620465B6EDC
:1011E000BDE8704018470020704708B5FFF780FA47
:1011F00008BD806C704770477047704710B5044653
:10120000082125F037FD204610BD10B504464C21BD
:1012100025F030FD204610BD10B504464FF4827114
:1012200025F028FD204610BD70B5036804468DB238
:101230005E6B114B1B682BB9104B6C21104A114887
:1012400026F0A2FD1049828D0988914203D80F4BE8
:101250006D210B4AF3E713F812200D4B1B6853F86E
:10126000220003681B6B9847291A3346204609B2AF
:10127000BDE87040184700BFF81F02249791029004
:10128000EC920290D9910290FC1F02241A920290D3
:101290000020022400224FF0FF318260C0E90021CB
:1012A000704700000A4A026000228280C2800281E8
:1012B00042818281C28102824282C261028442846E
:1012C00080F82420C0E90522012280F825207047FB
:1012D00040CA029070B50368044615461B6B9847D8
:1012E0002368294620465B6BBDE870401847000024
:1012F00038B504460D462622002126F0C0FD2046C2
:10130000FFF7D0FF064B2046294623602B88E38455
:10131000FF2384F8283011F0A0F8204638BD00BF24
:10132000FCC802902DE9F04F044687B00025FFF776
:10133000B9FF27464FF6FF79614B0DF1180804F10C
:101340005806A56228F8089D414647F82C3B3846C8
:10135000FFF7CEFF26222946304626F090FD304684
:10136000FFF7A0FF4FF47F03DFF880B104F1A40A78
:10137000C4F88C304146534B5046A4F88490A4F8EE
:101380009890A4F89A90A365C4F880B0C4F88850E7
:1013900084F8905084F89150A4F89450A4F8965092
:1013A000C4F89C50C4F8A050ADF81090FFF7A0FF0F
:1013B000454B152238462946A36004F19409FFF7EE
:1013C00089FF1E2338464146ADF8103011F045F82C
:1013D000394620460DF054FACA2229463046FFF716
:1013E00079FFA36DB42130469B6B6F469847A36D80
:1013F00031213046DB6B98474FF07F433846A4F8E5
:101400008C50C4F888303146A36DD3F884309847A7
:10141000012397E8070089E8070084F891303846EF
:10142000A36D3146D3F884309847284B97E80700DE
:101430001B6804F1D00789E807002BB9244B602111
:10144000244A254826F0A0FC244B1B88152B03D8E2
:10145000234B61211F4AF4E7224B1521186802F043
:1014600013F8214A03461921384617F075F9162357
:1014700041463046C4F8A070ADF81430CDF810B035
:1014800010F05CFE314620460DF0FAF91522504668
:101490009221FFF71FFF1D2341465046ADF8103043
:1014A00010F0DBFFC823204684F8C950514684F869
:1014B000CC300DF0E5F9204607B0BDE8F08F00BF55
:1014C000609202900C910290B4001001F81F022467
:1014D0009791029027930290D9910290FC1F0224C9
:1014E0001A9202900420022494910290FC9002909F
:1014F00070477047704770470220704770477047C9
:101500007047000070B5094B0646054600F50374A8
:1015100046F8043BA64206D0A4F582742368204610
:101520001B689847F6E7284670BD00BFD493029029
:10153000044B10B50446036000F5AE70FFF7E2FF00
:10154000204610BDA8940290704730B4C568034689
:1015500044686A10ED079B6804EB020048BFA2587C
:1015600030BC48BFD358184743682BB183682BB9A8
:10157000C06800F0010070471846704701207047AE
:1015800070B4C668034645687410F6079B6805EB9F
:10159000040044BF2C59E35870BC184743682BB172
:1015A00083682BB9C06800F0010070471846704787
:1015B00001207047F0B4C768846846687D10F8075A
:1015C00006EB050C44BF705904596046A446F0BCB4
:1015D000604743682BB183682BB9C06800F00100F5
:1015E0007047184670470120704710B504463021F7
:1015F00025F040FB204610BD10B50446FFF782FFE2
:101600004FF40371204625F035FB204610BD10B580
:101610000446102125F02EFB204610BD10B50446CF
:10162000102125F027FB204610BD10B504461021DF
:1016300025F020FB204610BD10B50446FFF778FFCB
:101640004FF4FD61204625F015FB204610BD00003B
:1016500070B500F5C06605468E4232D1A2F15B033B
:101660003B2B2AD9A2F12E042C2C8CBF0024012460
:10167000A2F197033B2BA2F1D30398BF03242C2B99
:101680001DD9B2F5807FA8BF0524EB6B02210D4A5E
:1016900005F2B4709B68A3F878422346C4EB0414A7
:1016A00017F05AF83046A10009B20DF07EFB05F2A2
:1016B000F460BDE8704014F064BC0224D8E7042450
:1016C000E3E770BD238F029008B58BB2012B05D9DB
:1016D000054B5421054A064826F056FB4FF4827309
:1016E00001FB0300043008BD2C940290E4940290A6
:1016F0004794029010B50446C8300CF01FFC04F566
:10170000B070FFF737F8D4F8643204F51970D3F8E5
:101710008830BDE81040184708B513F06FFBBDE8EE
:10172000084000F043BF08B513F068FBBDE808406F
:1017300000F00CBF00F5E8628A4202D103689B6B9F
:101740001847704770B5044600F5AE701E468842D3
:101750000BD11146FFF7B8FF236832460146DD6A18
:1017600020462B46BDE87040184770BD70B5044652
:10177000C06A0D4658B10368DB68984738B1E06A23
:101780002A4621460368BDE870409B68184770BD33
:1017900070B504461E46BDF91050FFF79BFD236847
:1017A000314620469A6B9047236829462046DB6BDA
:1017B000BDE870401847000010B5044626220021FD
:1017C00026F05DFB2046FFF76DFD0C4B4FF6FF72D8
:1017D0004FF47F0123602046094BA285A3620023BA
:1017E000A4F8402084F8383084F83930A387E387A0
:1017F000A4F842206364C4E90C3110BD04C802900F
:10180000FC90029010B50446FFF7D6FF024B20462D
:1018100023600023A36410BD0C910290F8B51A4B0D
:101820000646018F1B888B4229D9184B1B682BB9A0
:10183000174B6C21174A184826F0A6FA13F8112006
:10184000164B1B6853F82250154B186801F01CFE0C
:101850002B68074628469B6B98472B6804463946F9
:101860009B6C2846984714FB00F42B683946A4B2B9
:1018700028465B6A98472044A6F84600F8BD002336
:10188000A0F84630FAE700BFFC1F0224F81F02242C
:101890009791029073950290D991029000200224B2
:1018A000042002242DE9F04F044697B0002515F0DE
:1018B000F9F9A146DD4B26222946E56304F16C08BF
:1018C00049F8403B484626F0DAFA4846FFF7EAFC7A
:1018D000D74BFF26262223644FF6FF73294684F850
:1018E00066604046A566ADF8503026F0C8FA40461E
:1018F0000DF1580BFFF7D6FCCE4B404684F89460B0
:10190000E36604F19C073BF8083D04F55A7A261D6E
:101910005946A4F8923010F0A0FDC74B3846C4F8E1
:101920009850E3664FF0010384F890300CF094FC7B
:10193000C24B04F5B070C4F89C30C14BC4F85C31A4
:1019400004F5AE730D93FEF70BFF04F51970FEF767
:1019500007FF5046FFF730FF04F56C7318460693F7
:10196000FFF72AFF04F57E7318460793FFF724FF5D
:1019700004F5886318460893FFF71EFF04F591638A
:1019800018460393FFF73EFF04F2D443184604932E
:10199000FFF738FF04F5A46318460593FFF732FFFD
:1019A00004F26C5318460993FFF72CFF04F5B76354
:1019B00018460A93FFF700FF04F5C0631846029328
:1019C0000DF0F2FB04F2F46318460C93FFF71AFFD4
:1019D00004F5E86318460B9310F076FE994B2A46FF
:1019E0004846C4F8B8372946974BC4F8BC47C4F8F2
:1019F000C037964BC4F8C457C4F8C837944BC4F8E2
:101A0000CC47C4F8D037934BC4F8D457C4F8D83770
:101A1000914BC4F8DC47C4F8E0374FF48873C4F83E
:101A2000E45700934FF4F073FFF7B2FE4FF07F439B
:101A300049463046A36604F5F1690CF021FF2A46B9
:101A400040462946FFF746FC40465946ADF85050FF
:101A500010F003FD41463046DFF810820CF010FF15
:101A60004FF488732A46384600934FF48C71B423A0
:101A7000FFF78EFE384629460CF063FE38460121FA
:101A80000CF0BAFE384675490CF09BFD3846322101
:101A90000CF09AFD38460A210CF099FD38460C21CD
:101AA0000CF010FD384629460CF0E6FA38462A4676
:101AB0004FF4887184F826510CF084FC384604F504
:101AC000F7620D990CF0B0FE2A46384629460CF014
:101AD00069FC394630460EAF0CF0D2FE1E2228219A
:101AE0005046FFF7F7FB4FF07F4351463846C4F8A6
:101AF0009833A4F89C5310F087F804F5697397E8BD
:101B0000070083E80700564B5946504614931423A8
:101B1000ADF8543010F012FB514630460CF0B0FED8
:101B20003C2228210698FFF7D5FB4FF07F4206990B
:101B30003846C4F8E023A4F8E45310F065F804F53F
:101B40007B7397E8070083E80700454B59460698E2
:101B500014931323ADF8543010F0F0FA0699304680
:101B60000CF08EFE5A2228210798FFF7B3FB4FF0A6
:101B70007F4207993846C4F82824A4F82C5410F062
:101B800043F804F2344397E8070083E80700344B36
:101B90005946079814931223ADF8543010F0CEFA3A
:101BA000079930460CF06CFE782228210898FFF740
:101BB00091FB4FF07F4208993846C4F87024A4F88E
:101BC000745410F021F804F27C4397E8070083E88E
:101BD0000700234B5946089814931123ADF854304D
:101BE00010F0ACFA089930460CF04AFE1E22AA21E9
:101BF0000398FFF76FFB4FF07F43A4F8BC543846BF
:101C0000C4F8B834D4F888340399D3F884309847AA
:101C100004F2C44397E8070083E80700D8F80030CF
:101C20004BBB104B6021104A22E000BFA8940290E9
:101C300094C80290FCC8029068930290F4C302908A
:101C4000D4930290EC930290451700900494029074
:101C5000511600901C940290351700904571019028
:101C6000FC90029097910290AE950290F81F02248A
:101C7000CD4826F089F8DFF848A3BAF800300C2BDD
:101C800003D8CA4B6121CA4AF2E7CA4B0C21186833
:101C900001F0FAFBC84A03460421484616F05CFDF1
:101CA000C4F8D094039804F5F26910F027FA4FF0C5
:101CB0001001C24BADF8541059460398149310F01C
:101CC0003DFA039930460CF0DBFD3C22AA21049832
:101CD000FFF700FB4FF07F41D4F8D4343846C4F806
:101CE0000415A4F808550499D3F88430984704F5EE
:101CF000A26397E8070083E80700D8F80030002BBC
:101D00008FD0BAF800300B2BBBD9AA4A0B21106830
:101D100001F0BAFBA84A03460821484616F01CFD0C
:101D2000C4F81C95049804F5F46910F0E7F9A34B86
:101D30005946049814930F23ADF8543010F0FEF96F
:101D4000049930460CF09CFD5A22AA210598FFF711
:101D5000C1FA4FF07F41D4F820353846C4F8501509
:101D6000A4F854550599D3F88430984704F25C538D
:101D700097E8070083E80700D8F80030002B3FF40D
:101D800050AFBAF800300A2B7FF67BAF894A0A21A0
:101D9000106801F079FB884A03460321484616F093
:101DA000DBFCC4F86895059804F2A67910F0A6F952
:101DB000824B5946059814930E23ADF8543010F019
:101DC000BDF9059930460CF05BFDAA2178220998EF
:101DD000FFF780FA4FF07F41D8F80030C4F89C1527
:101DE0004FF0FF31A4F8A055C4F8A855C4F8AC15BD
:101DF000C4F8B055002B3FF414AFBAF80030092BEB
:101E00007FF63FAF6B4A0921106801F03DFB6A4A3B
:101E100003460721484616F09FFC0998C4F8B4957C
:101E200010F06CF9654B5946099814930D23ADF8E1
:101E3000543010F083F9099930460CF021FD9622B8
:101E400028210A98FFF746FA4FF07F42A4F8EC5594
:101E50003846C4F8E8250A990FF0D6FE04F2F45388
:101E600097E8070083E80700544B59460A981493F3
:101E70000823ADF8543010F061F90A9930460CF09F
:101E8000FFFCB42225210298FFF724FA072313AAA6
:101E900012A9ADF8483005230298ADF84C3006235E
:101EA000ADF850305B460DF0D9F9C8230B22102154
:101EB0000298CDE900532B460DF0F1F84FF49672DD
:101EC000294602980CF0A9FF294602980CF06DFFF4
:101ED00004F5F96302993046C4F8EC360CF0D0FCF6
:101EE00018239622AA21009327230C98FFF750FC71
:101EF0004FF07F43A4F82857C4F824374FF0FF333E
:101F0000C4F83057C4F83437D8F80030C4F838571C
:101F100004F2B475002B3FF484AEBAF80030062BFF
:101F20007FF6AFAE234B0621186801F0ADFA224AC6
:101F300003460221284616F00FFC204BC4F83C57FC
:101F400014A9149307230C980425ADF8543010F00D
:101F5000F5F80C9930460CF093FC0B98DC225421D8
:101F6000FFF7B8F9032314AA13A90B98ADF84C3066
:101F7000ADF8505010F03FF90B98A4F87857FFF7E0
:101F80004DFC4FF0FF3330460B99C4F87C37C4F852
:101F9000803704F5FB63C4F868370CF071FC204609
:101FA00017B0BDE8F08F00BFD99102901A9202904D
:101FB000AE9502900420022494910290FC9002902D
:101FC000FC1F02247047704710B504464FF4267179
:101FD00024F050FE204610BD08B512F00FFFBDE8FA
:101FE000084000F0D3BA00002DE9F04F04468BB052
:101FF000002514F057FEA1468D4B26222946E563A5
:1020000004F16C0849F8403B484625F038FF484643
:10201000FFF748F9874BFF26262223644FF6FF730C
:10202000294684F866604046A566ADF8203025F064
:1020300026FF40460AAFFFF735F97F4B84F89460DE
:1020400004F19806E366404637F8083D04F5BE7B88
:1020500004F1040A3946A4F8923010F0FEF9304633
:102060000BF0BEFB5846FFF7CDFB04F5E4731846B2
:102070000393FFF7C7FB4FF488732A464846009343
:1020800029464FF4F073FFF783FB4FF07F43494637
:102090005046A3660DF110090CF0F2FB2A464046AB
:1020A0002946FFF717F940463946ADF8205010F0A1
:1020B000D4F9414650464FF002080CF0E1FB30469F
:1020C000AA225A21FFF706F9122330462A46009326
:1020D00029464FF496730BF0DCFA2B464FF49672B8
:1020E0003046294600950BF0F3FB304629460BF0AD
:1020F000CEFB30463946ADF820800BF017FD304658
:102100004E490BF0B0FA304629460BF0DAFA314668
:10211000504604F505760CF0B3FB372358221E21F8
:10212000009358464FF4D273FFF732FB4FF07F43D2
:10213000A4F8B0515946C4F8AC314846D4F87C31C3
:10214000D3F88430984704F5DC7399E8070083E8F6
:1021500007003B4B1B682BB93A4B60213A4A3B487E
:1021600025F012FE3A4B1B88022B03D8394B612114
:10217000354AF4E7384B414604F51978186801F000
:1021800083F9364A03462821304616F0E5FA032340
:10219000C4F8C4613946324E5846ADF8243008962A
:1021A0000FF0CCFF594650460CF06AFB37224FF433
:1021B000D2731E21009221220398FFF7E9FA4FF013
:1021C0007F42D4F8C8314846C4F8F821A4F8FC513D
:1021D0000399D3F88430984704F5017399E8070010
:1021E00083E80700164A1368002BB5D0184A1388F5
:1021F000002BBBD0184B2946186801F045F9174A47
:1022000003461921404616F0A7FA012339460398E0
:10221000C4F81082ADF8243008960FF08FFF5046B6
:1022200003990CF02DFB20460BB0BDE8F08F00BFEA
:10223000F095029094C80290FCC80290DBD995FFFB
:10224000F81F02249791029020960290D991029053
:10225000FC1F02241A9202900420022494910290FE
:10226000FC9002907047704770474160704770471C
:10227000012303727047704770477047704710B46E
:10228000C468034641686210E4079B6801EB0200E2
:1022900048BF8A585DF8044B48BFD3581847436875
:1022A0002BB183682BB9C06800F001007047184655
:1022B00070470120704710B504460C2124F0DAFC69
:1022C000204610BD10B504464FF4AE7124F0D2FC88
:1022D000204610BD10B50446102124F0CBFC20464A
:1022E00010BD10B50446402124F0C4FC204610BDAA
:1022F00010B50446402124F0BDFC204610BD10B5A9
:1023000012F07CFD0368BDE81040DB6B184770B528
:10231000044690F83900013094F83830C0B2984241
:1023200084F8390005D901232372002384F8393059
:1023300070BDB4F93A20002114F0A4FE83B213F06A
:10234000010206D04FF6FF710028D8BF0A46981840
:1023500000B2238AC01AA08760680368DB699847C7
:1023600005464DB1A9882846A38F19442B6809B2A8
:102370001B6B9847AD69F4E760680368BDE870407F
:102380005B69184770B5044690F83900013094F83D
:102390003830C0B2984284F8390005D9012323723D
:1023A000002384F8393070BDB4F93A20002114F0CC
:1023B00069FE83B213F0010206D04FF6FF710028C8
:1023C000D8BF0A46981800B2238AC01AA08760684E
:1023D0000368DB69984705464DB1A9882846A38F55
:1023E00019442B6809B21B6B9847AD69F4E7606824
:1023F0000368BDE870405B6918470000054B1B7817
:102400003BB143682BB11A6800F10C011846526EBB
:10241000104770479F1F0224054B1B783BB1436850
:102420002BB11A6800F10C011846526E1047704724
:102430009F1F022470B5037A0546BBB94068036844
:10244000DB69984704464CB1A18820466B8FC91AB6
:10245000236809B21B6B9847A469F4E7686805F123
:102460000C010368BDE870401B6E184770BD70B565
:10247000037A0546BBB940680368DB6998470446A0
:102480004CB1A18820466B8FC91A236809B21B6B17
:102490009847A469F4E7686805F10C010368BDE892
:1024A00070401B6E184770BD70B503680446154632
:1024B0009B6B9847236829462046DB6BBDE870403C
:1024C00018470000044B1B6893F858200AB1D86CD9
:1024D00000B99868704700BFA01F0224F8B50446F1
:1024E00017460E4612F09AFD144B0025C4F854719D
:1024F0001C602946124BC4F83C512360114BC4F8B0
:102500004051C4F84431104BC4F848511868C4F81D
:102510004C51C4F85051C4F8586103689B689847FF
:10252000284600F077FFFFF7CDFF1CF0BEFAFFF75B
:10253000C9FF1CF035FB2046F8BD00BFF41F022484
:102540007896029060960290A01F0224064BC0F875
:102550004801C0F84C310023C0F8503100F5A27397
:10256000C0F84031704700BF0D270090064BC0F8FF
:102570004801C0F84C310023C0F8503100F5A27377
:10258000C0F84031704700BF912A0090064BC0F858
:102590004801C0F84C310023C0F8503100F5A27357
:1025A000C0F84031704700BFC9280090064BC0F802
:1025B0004801C0F84C310023C0F8503100F5A27337
:1025C000C0F84031704700BFF12B00902DE9F04773
:1025D000074690689946884603681546DDF820A0AE
:1025E0001B6A9847B0F5AA7F05D2424BA321424A05
:1025F000424825F0C9FB686803681B6A98470F28A2
:1026000003D83F4BA4213C4AF2E7E86803681B6A01
:1026100098470B2803D83B4BA521374AE8E712F02F
:10262000EDFB043012F028FCD9F8000010B103686B
:10263000DB689847D9F8000010B103681B68984719
:10264000386810B103685B699847D8F8000010B18A
:1026500003685B689847386810B103681B6898473F
:10266000D8F8000010B103689B689847E86800211B
:1026700003685B6A9847044620B1002343600372F5
:10268000214B0360A868002103685B6A98470646EF
:1026900008B1FEF74DFC6868002103685B6A984743
:1026A000054610B13146FEF7C5FBC9F80040C8F831
:1026B00000503E60E5B12B1DCAF800303046C5F829
:1026C00008A03368F563DB6898472B6828461B68C9
:1026D00098472146304614F091FC236820461B6938
:1026E0009847236820465B6998472846BDE8F087ED
:1026F0002B46E1E730970290B49C0290BE9702907F
:10270000FF970290A2980290CC96029007B5D0F85D
:10271000583100F59E710093044BD0F854210448C1
:10272000FFF754FF03B05DF804FB00BFE81F02246D
:10273000E41F02242DE9F84F074690689946884621
:10274000036815461B6A984740F2FB73984205D808
:10275000544BA321544A554825F016FB686803687A
:102760001B6A98470F2803D8514BA4214E4AF2E721
:10277000E86803681B6A98473F2803D84D4BA5219A
:10278000494AE8E712F03AFB043012F075FBD9F839
:10279000000010B10368DB689847D9F8000010B159
:1027A00003681B689847386810B103685B699847ED
:1027B000D8F8000010B103685B689847386810B11A
:1027C00003681B689847D8F8000010B103689B683D
:1027D0009847E868002103685B6A98470446B0B1EF
:1027E0004FF0000B344B0646C0F804B080F808B038
:1027F00046F80C3B30460FF009F91423A4F83CB01E
:1028000023872E4B1B78002B37D101232372A86816
:10281000002103685B6A9847064608B1FEF730F866
:102820006868002103685B6A9847054610B1314625
:10283000FDF7B0FFC9F80040C8F800503E60002D19
:102840002ED02B1D0A9A30461360AA603368F563B8
:10285000DB6898472B6828461B6898472146304616
:1028600014F0CCFB236820461B6998472368204658
:102870005B6998472846BDE8F88FDFF848A03046E6
:102880000F4ABAF90010B2F90020C4F810B0FFF7EF
:102890000BFE30460FF035F8BAF800306387B6E724
:1028A0002B46CFE7309702906A9A0290BE9702902B
:1028B000FF970290A2980290149702909F1F022403
:1028C000961F0224941F022407B5D0F8583100F552
:1028D0009E710093044BD0F854210448FFF72AFF5F
:1028E00003B05DF804FB00BFE81F0224E41F0224CC
:1028F000F8B50026134B0546044646600F4606729F
:1029000045F80C3B28460FF081F80F4B84F83870DF
:102910001B7884F83960A6871BB9012323722046EF
:10292000F8BD0A4B28460A4FB3F90020B7F900104A
:102930002661FFF7B9FD28460EF0E3FF3B885B42B6
:102940006387ECE7F09602909F1F0224961F0224F3
:10295000941F02242DE9F04707469068994688465F
:1029600003681446DDF820A01B6A984740F2FB7309
:10297000984205D8414BA321414A424825F004FA28
:10298000606803681B6A98470F2803D83E4BA42150
:102990003B4AF2E7E06803681B6A98473F2803D880
:1029A0003A4BA521364AE8E712F028FA043012F033
:1029B00063FAD9F8000010B10368DB689847D9F8CA
:1029C000000010B103681B689847386810B10368AD
:1029D0005B699847D8F8000010B103685B689847B6
:1029E000386810B103681B689847D8F8000010B128
:1029F00003689B689847E068002103685B6A984712
:102A0000054610B11421FFF773FFA0680021036889
:102A10005B6A9847064608B1FDF732FF60680021FF
:102A200003685B6A9847044610B13146FDF7B2FE71
:102A3000C9F80050C8F800403E60E4B1231DCAF850
:102A400000303046C4F808A03368F463DB68984768
:102A5000236820461B6898472946304614F0CEFA72
:102A60002B6828461B6998472B6828465B6998475E
:102A70002046BDE8F0872346E1E700BF309702908B
:102A800045990290BE970290FF970290A2980290FB
:102A900007B5D0F8583100F59E710093044BD0F87B
:102AA00054210448FFF756FF03B05DF804FB00BF54
:102AB000E81F0224E41F02242DE9F047074690682E
:102AC0009946884603681446DDF820A01B6A98479B
:102AD000B0F5287F05D2414BA321414A414825F05A
:102AE00053F9606803681B6A98470F2803D83E4B68
:102AF000A4213B4AF2E7E06803681B6A98473F2835
:102B000003D83A4BA521364AE8E712F077F90430AA
:102B100012F0B2F9D9F8000010B10368DB689847E9
:102B2000D9F8000010B103681B689847386810B1E5
:102B300003685B699847D8F8000010B103685B68C8
:102B40009847386810B103681B689847D8F80000A8
:102B500010B103689B689847E068002103685B6ACE
:102B60009847054610B11421FFF7C2FEA068002166
:102B700003685B6A9847064608B1FDF7EFFF606897
:102B8000002103685B6A9847044610B13146FEF79E
:102B900097F8C9F80050C8F800403E60E4B1231D22
:102BA000CAF800303046C4F808A03368F463DB6824
:102BB0009847236820461B6898472946304614F0FA
:102BC0001DFA2B6828461B6998472B6828465B69C5
:102BD00098472046BDE8F0872346E1E7309702900A
:102BE0008F9B0290BE970290FF970290A29802904E
:102BF00007B5D0F8583100F59E710093044BD0F81A
:102C000054210448FFF758FF03B05DF804FB00BFF0
:102C1000E81F0224E41F0224002070477047704719
:102C200070477047A0F84C107047B0F84C007047E0
:102C300081857047808D704710B504463C2124F093
:102C400019F8204610BD10B504465C2124F012F896
:102C5000204610BD10B504464FF49A7124F00AF8CE
:102C6000204610BD08B512F0C9F8BDE80840FFF7CE
:102C70007DBC70B590F848300446002B4BD0B0F8BE
:102C80004A00B4F84C30013080B29842A4F84A00AF
:102C900041D3B4F85050C01AB4F852200021B4F80F
:102CA0004E3080B2521B666D12B2B047054494F8A4
:102CB0003620ADB22BB29A4206D0EDB22BBB2046E5
:102CC0000FF050F984F83650B4F84C30B4F84E1088
:102CD000B4F84A200B449A421DD3002384F84830AC
:102CE000A4F84E3012F08AF82146043012F0ABF806
:102CF000A06D80B10368DB68984760B1A06D214684
:102D00000368BDE870409B68184784F83650204639
:102D10000FF028F9D8E770BD70B590F82930044657
:102D2000002B41D0408DA38D013080B29842608548
:102D30003AD3258EC01A628E0021E38D80B2521BD9
:102D4000666B12B2B047054494F82820ADB22BB29E
:102D50009A4206D0EDB20BBB2046FEF7DEF884F8AF
:102D60002850A38DE18D628D0B449A421CD3002321
:102D700084F82930E38512F041F82146043012F03E
:102D800062F8A06B80B10368DB68984760B1A06B04
:102D900021460368BDE870409B68184784F82850B6
:102DA0002046FEF7BAF8DCE770BD00002DE9F04FD1
:102DB000044689B0002513F075FFA0466C4B26220F
:102DC0002946E56308AF48F8403B404625F057F8F0
:102DD0004046FEF767FA674B4FF6FF7904F16C0B3C
:102DE0002364FF2327F8089D584684F86630394647
:102DF000A56604F19C0AFEF77BFA5F4B3946C4F8DE
:102E00009850E3664FF00103504604F1D80684F869
:102E10009030ADF81890FEF76BFA584A294684F8BE
:102E2000C5503046C4F89C202622A4F8C650A4F809
:102E3000C850C4F8D45025F022F83046FEF732FAD4
:102E40004FF47F024E4B2946C4F80C2140464D4AB0
:102E5000C4F80031A4F80491A4F81891A4F81A91C8
:102E600004F10409C4F8D8202A46C4F8085184F8AB
:102E7000105184F81151A4F81451A4F81651C4F853
:102E80001C5184F82051A4F82251A4F82451C4F80C
:102E900030510193FEF71EFA40464FF488724FF40A
:102EA000F071FFF701FB4FF07F4241464846A266B2
:102EB0000DF108080BF0E4FC2A4629465846FEF7B7
:102EC00009FA4FF0010339465846ADF818300FF0B3
:102ED000C4FA594648460BF0D3FC504644226B21B5
:102EE000FEF7F8F9152239465046ADF818200FF0D4
:102EF000B4FA5146484684F8C45004F58A7A0BF077
:102F0000BFFC30465A22E321FEF7E4F93046732233
:102F1000B421FFF7C9FA4FF0FF3231464046C4F8FA
:102F20000821A4F80C510EF06FFE4FF0010398E851
:102F300007008AE8070084F81131314640460EF058
:102F400063FE019B98E80700069305238AE80700C3
:102F500039463046ADF81C300FF0F0F8484684F89A
:102F60000E5131460BF08CFC204609B0BDE8F08FC5
:102F7000D89E029094C8029068930290CC9D0290D3
:102F8000FC900290409E0290704710B504462C21A0
:102F900023F070FE204610BD30B5184D8FB02C7850
:102FA000BFF35B8F14F0010424D1284623F039FECF
:102FB00000B33F235F2212490993124B0A940893EE
:102FC000114B01940793012310480493CDE9053375
:102FD0000423CDE902431123CDE90B4400931523CB
:102FE00000F06AF8284623F028FE094A09490748F4
:102FF00023F03BFE05480FB030BD00BF840600241F
:103000009C5420902CD502907CD3029088060024FA
:1030100000000024892F009013B5002249B102ABB3
:10302000019203F8052D0268946801AAA04702B036
:1030300010BD0846FBE7C0897047008A7047C0880A
:10304000704780887047807A00F07F007047807AF0
:10305000C0097047002070479FED010A704700BF0C
:1030600000000000406A7047806A70478B88C06922
:10307000DB0A0A6850F823001044704710B5C2B14B
:10308000137BB3B1547BD27A240204F4E06414437A
:10309000026A98B202EB840213888B4202D192F941
:1030A000020010BD05D80138043280B20028F3D1E7
:1030B000F7E70020F5E7000030B58BB00446BDF817
:1030C00060500895BDF85C5007959DF850500695E6
:1030D0009DF84C5005959DF8485004959DF8445036
:1030E00003959DF8405002959DF83C500195BDF820
:1030F0003850009513F00EFB064B20462360159BBD
:10310000E361169B2362199B63621A9BA3620BB057
:1031100030BD00BF109F029030B5184D8FB02C7895
:10312000BFF35B8F14F0010424D1284623F079FD0E
:1031300000B33F235F2212490993124B0A9408936C
:10314000114B01940793012310480493CDE90533F3
:103150000423CDE902430A23CDE90B4400930C2359
:10316000FFF7AAFF284623F068FD094A09490748E6
:1031700023F07BFD05480FB030BD00BFB40600242E
:10318000648A209048D3029080D30290B80600242D
:1031900000000024892F009010B5002404600C600A
:1031A00014601C6010BD000030B5184D8FB02C7835
:1031B000BFF35B8F14F0010425D1284623F031FDC5
:1031C00008B33F23052212490993124B0A9408932E
:1031D000114B01940793012310480493CDE9052373
:1031E00004236022CDE902432823CDE90B44009358
:1031F0003123FFF761FF284623F01FFD084A0949E4
:10320000064823F032FD05480FB030BDE406002427
:10321000BC97209084D3029080D60290E8060024C8
:1032200000000024892F009030B5184D8FB02C7805
:10323000BFF35B8F14F0010424D1284623F0F1FC86
:1032400000B33F235F2212490993124B0A9408935B
:10325000114B01940793012310480493CDE90533E2
:103260000423CDE902431423CDE90B440093182332
:10327000FFF722FF284623F0E0FC094A09490748E6
:1032800023F0F3FC05480FB030BD00BF1407002445
:10329000FC9C209088D3029084D6029018070024CA
:1032A00000000024892F0090704710B504460421C7
:1032B00023F0E0FC204610BD08B5032913D8DFE851
:1032C00001F002060A0E00F019F8006808BD00F0CF
:1032D00015F84068FAE700F011F88068F6E700F0AA
:1032E0000DF8C068F2E70020F0E7000000487047E2
:1032F000849F029023207047182070470048704731
:103300004407002410B5074CFFF78EFF2060FFF73D
:103310004BFF6060FFF700FFA060FFF73DFEE0603D
:1033200010BD00BF440700240020704700207047F4
:103330000EB403B503AB002153F8042B019312F034
:10334000F5FC02B05DF804EB03B070470CB407B5B0
:1033500004AB53F8042B019312F0E8FC03B05DF8C2
:1033600004EB02B07047000010B5436C044673B321
:10337000038F2BB9184BC521184A194824F004FDB6
:10338000C38E00EB43035B8C0BB314F03DFC238F27
:10339000012B03D8134BCB21134AEEE7E28E40F604
:1033A0003F10531C9BB2092B194688BFA3F10A0199
:1033B00004EB4101498C814209D10A2B04EB420202
:1033C00028BF0023508C04EB4303588451842046CB
:1033D000BDE8104014F01ABB40A202906DA3029009
:1033E00049A202908DA202909BA2029014F0D7BA3B
:1033F00010B586B002AC84E806001A460AAB214636
:1034000005930193099B0093089B11F095F806B072
:1034100010BD000038B5D8B9114B12481B681249CD
:10342000BBB11A689C681A441C4402605A681A446A
:103430000A606CB10D4B00221A80FFF75FFF054652
:10344000FFF75AFF0A4B1C600A4B1D600A4B18809D
:1034500038BD0A4B03600A4B0B600A4B1C68E8E757
:1034600054070024580700245C0700246007002448
:10347000F81F022400200224FC1F0224C4A2209072
:1034800030A22090C0A22090044B1B6853F821006A
:10349000034B1B6803EB4000704700BF5C07002430
:1034A00058070024012380F8781080F8793070479D
:1034B0000020704741640031024B18BF0121197090
:1034C000704700BF9F1F022400207047836B0BB121
:1034D0000846184770474FF6FF707047406803680A
:1034E0009B69184700207047B1F9043083800120A0
:1034F0007047704780F82610704790F82600704794
:1035000010B50022B1F90840B1F90A1002804280DA
:103510008480C18010BD0022028042808280C280EF
:1035200070470177704780ED080A704780F82410D3
:10353000704780F825107047012070479830704719
:103540008C30704784307047034B902283F85A23A5
:1035500083F85823704700BF00E100E0094A0A4998
:10356000D3680A48C3F30A03013B9BB20B8011697D
:10357000C1F30A01013901801364536B43F0010365
:1035800053637047001000509A07002498070024E6
:10359000014B986A704700BF84100050024B012213
:1035A000996243F8602C7047841000507047704750
:1035B00070477047242303FB0101002381F8243066
:1035C000704780F82C10704710B50446302123F066
:1035D00051FB204610BD10B504462C2123F04AFBB8
:1035E000204610BD10B50446BC2123F043FB204605
:1035F00010BD000010B531B90A4B40F2D2210A4A81
:103600000A4824F0C1FBC0E90F120032084918BF74
:1036100001220A7019460268BDE81040D2F88C20D9
:10362000104700BFDCA60290A6B4029014A7029037
:103630009E1F022408B5094B1B888B4203D8084BF8
:103640001B88934205D9074B9E21074A074824F05F
:103650009BFB074B1980074B1A8008BD941F02245F
:10366000961F022479A6029063B4029014A70290D8
:103670009A1F02249C1F022408B531B1044B4FF459
:103680009171044A044824F07FFB90F8250008BD9E
:103690003CA50290FAA9029050A5029010B531B154
:1036A000064B4FF48E71064A064824F06DFB4068C5
:1036B00011460368BDE810401B6B18473CA50290FB
:1036C00045B0029050A5029008B531B1044B4FF4BB
:1036D0008A71044A044824F057FBC06808BD00BF43
:1036E0003CA502908CB1029050A5029070B50446A2
:1036F0000D4629B10D4B5E210D4A0E4824F044FBC6
:10370000406811460368DB689847606803689B6AF5
:1037100098472368E060294684F8285020465E6A6E
:1037200001222B46B446BDE8704060473CA502909C
:10373000E6AD029050A502902DE9F04104461746EF
:103740000D4629B10E4B4E210E4A0F4824F01CFBAA
:1037500040683946026896681A46B0476068036850
:103760009B6A98472368E060294684F828502046E1
:103770005E6A01222B46B446BDE8F041604700BFB7
:103780003CA5029072AC029050A5029008B529B1F8
:10379000054B4021054A064824F0F6FA8160016194
:1037A000C0E9053208BD00BF3CA502901DAB0290E8
:1037B00050A5029038B504460BF0E5FD23685D6E18
:1037C00011F01CFB01462046A8472368064A204604
:1037D000D3F888500023A2F57F31A8476268034BD5
:1037E0005A64034A536038BD00FC03D058080024D3
:1037F000680700240BF0AEBD0BF0B8BD0BF073BD35
:103800000BF0D5BE10B504460CF0FCFA2368204638
:10381000D3F8AC30BDE8104018470BF089BE90F8E3
:103820007A301BB1406803681B6818471846704718
:1038300010B590F8784090F834100C4B8C421A7800
:1038400009D03AB90A490B4A088814881080012225
:103850000C801A7010BD002AFCD0064A0449148856
:1038600008880C8010800022F3E700BF981F022414
:10387000961F0224941F0224134A0023F0B5C2F8B5
:103880008430BFF34F8FD2F8803043F6E076C3F335
:10389000C904C3F34E33A5075B0103EA060C2846AF
:1038A00021464CEA0007013900F14040C2F8747229
:1038B0004F1CF6D1203B13F1200FEED1BFF34F8FF9
:1038C000BFF36F8FF0BD00BF00ED00E0034B5B69FD
:1038D000DB0301D5FFF7D0BF704700BF00ED00E06C
:1038E000034B5B69DB0301D5FFF7C6BF704700BF21
:1038F00000ED00E070B5044629B1274B6E21274A40
:10390000274824F041FA052A2BD8DFE802F00325E6
:103910002B30373F406803681B69984708B3012381
:1039200084F82530002384F82630A360236194F8BE
:103930002730B3B96468236820469B6A9847236898
:1039400005462046DB6A984785420AD1236820460F
:103950009B69BDE870401847002380F8253080F847
:10396000263070BDC3610023A3602361F9E7C36102
:10397000012380F8263080F82830F4E70023012264
:1039800080F8253080F82630C261EDE7003318BF9B
:10399000012380F82730E4E73CA5029053A702906A
:1039A00050A502902DE9F34105461646984629B1E7
:1039B000164BE921164A174824F0E6F940680368D7
:1039C0001B699847F8B1144C012120680CF07CFA6F
:1039D00041460746684612F06FFB104BBDF90210D6
:1039E0001B886868BDF9002003FB0122016807EB12
:1039F0004202CD693146A84720680368DB6A02B0FD
:103A0000BDE8F041184702B0BDE8F0813CA5029046
:103A1000DAB2029050A50290A01F02249A1F02243D
:103A200008B590F8243033B1084B40F26B11084AC6
:103A3000084824F0A9F9012280F82420184681F8CA
:103A40003430CB860B870B6308BD00BF8FA5029077
:103A500025AF029050A50290F8B5044629B13F4B1E
:103A6000A9213F4A3F4824F08FF990F825301BB92F
:103A700090F82630002B6FD03B4B00271B6893F843
:103A80006B10236984F826700B44236194F8283066
:103A9000002B54D01368104665685B699847E66947
:103AA0002B682EB331465B6A284698472B68E66937
:103AB0002846DB6A98478642E7612CBF002601262C
:103AC0002B6828469B6A9847A368E0600133A3608F
:103AD000A069D4E904325A43A36843439A4239D9CE
:103AE00094F82C1069BB012184F828103046F8BDE9
:103AF000226A62B12846D3E909739847216A0144D2
:103B00002846B847A368226A26621344A36094F843
:103B100027602B6826B19B69284698470646CFE761
:103B20009B6A284698472B6807462846DB6A9847D1
:103B3000874201D22B68EEE784F82560C0E70126B2
:103B4000C6E7D31AB3FBF0F30BB92362CBE7013B13
:103B50002362C9E70021C7E70126C7E73CA5029019
:103B6000C0A8029050A50290A01F0224034B4FF062
:103B700080629A604FF080729A60704700E100E0C6
